:04000000803118280B
:100008007E1480310B1F09280A2816282E001A1C76
:100018000E280F281628101C122813281628843199
:10002800AA2480317E10090080311A28A03084006B
:10003800003085001D308431E92480317E10200095
:1000480081316F292000D8009930A0007030A100BC
:1000580084318D2480312000AE0058088600870145
:100068002E0881009A30A0007030A10084318D24C0
:1000780080312000AE002208860087012E0881000A
:100088009B30A0007030A10084318D248031200085
:10009800AE002308860087012E0881009C30A0004E
:1000A8007030A10084318D2480312000AE002408F6
:1000B800860087012E0881009D30A0007030A100C5
:1000C80084318D2480312000AE0025088600870108
:1000D8002E0881009E30A0007030A10084318D244C
:1000E80080312000AE002608860087012E08810096
:1000F8009F30A0007030A10084318D248031200011
:10010800AE002708860087012E088100A030A000D5
:100118007030A10084318D2480312000AE00280881
:10012800860087012E088100A130A0007030A10050
:1001380084318D2480312000AE0029088600870193
:100148002E088100A230A0007030A10084318D24D7
:1001580080312000AE002A08860087012E08810021
:10016800A330A0007030A10084318D24803120009C
:10017800AE002B08860087012E088100A430A0005D
:100188007030A10084318D2480312000AE002C080D
:10019800860087012E088100A530A0007030A100DC
:1001A80084318D2480312000AE002D08860087011F
:1001B8002E0881002C08860087010108AE00AF01D7
:1001C8002B08860087010108B000B1012A088600C3
:1001D80087010108B200B3012908860087010108D8
:1001E800B400B5012808860087010108B600B701E8
:1001F8002708860087010108B800B901260886008B
:1002080087010108BA00BB0125088600870101089B
:10021800BC00BD012408860087010108BE00BF019B
:100228002308860087010108C000C1012208860052
:10023800870158088400850100080107C200C3012E
:10024800C30D40084207C4004108433DC5003E08AD
:100258004407C6003F08453DC7003C084607C8009C
:100268003D08473DC9003A084807CA003B08493DD0
:10027800CB0038084A07CC0039084B3DCD0036087A
:100288004C07CE0037084D3DCF0034084E07D0004C
:1002980035084F3DD10032085007D2003308513D90
:1002A800D30030085207D4003108533DD5002E083A
:1002B8005407D6002F08553DD7002D088600870122
:1002C80001085606570403196A296B296D2901305C
:1002D8006E2900300800FF302100BD000030BE004C
:1002E8008431572481318B170B17B6302000A000BA
:1002F8000330A1008431EF248131200016178431A6
:100308009D24813182310322813150302000D9006F
:100318005908A7004530DA005A08A8004030DB0029
:100328005B08A9003530DC005C08AA006530DD00F8
:100338005D08AB0055308231EB2281318431C32412
:100348008131C0302000D9005908A700C130DA0037
:100358005A08A800C230DB005B08A900C330DC00E3
:100368005C08AA006530DD005D08AB00BF30823153
:1003780091228131C5302000D9005908A200C63029
:10038800DA005A08A300C730DB005B08A400C830B5
:10039800DC005C08A500C930DD005D08A600CA3095
:1003A800DE005E08A700CB30DF005F08A800CC3075
:1003B800E0006008A900CD30E1006108AA00CE3055
:1003C800E2006208AB00CF30E3006308AC00D03035
:1003D800E4006408AD00C430803126208131033048
:1003E8002000DA008A30D9005530890BF929D90B59
:1003F800F929DA0BF9290032A22980311828993015
:100408002000A0007030A100AA30A4002408A20097
:100418008331DE2382319A302000A0007030A100A1
:100428000A30A4002408A2008331DE2382319B30E5
:100438002000A0007030A100A2018331DE238231A8
:100448009C302000A0007030A100A2018331DE237F
:1004580082319D302000A0007030A100A2018331BC
:10046800DE2382319E302000A0007030A1000530CC
:10047800A4002408A2008331DE2382319F302000AB
:10048800A0007030A1000330A4002408A20083312A
:10049800DE238231A0302000A0007030A100193086
:1004A800A4002408A2008331DE238231A130200079
:1004B800A0007030A1000230A4002408A2008331FB
:1004C800DE238231A2302000A0007030A100A201FA
:1004D8008331DE238231A3302000A0007030A100D8
:1004E8000C30A4002408A2008331DE238231A4301A
:1004F8002000A0007030A100A2018331DE238231E8
:10050800A5302000A0007030A100E330A40024082A
:10051800A2008331DE23823108002000AD002B08C1
:1005280083317F23823120002108AF002008AE00EC
:100538002F08A1002E08A00084318D2482312000CC
:10054800AC002D08860087012C0881002E08013E8A
:10055800A00000302F3DA10084318D24823120007D
:10056800AC002708860087012C0881002E08023E6F
:10057800A00000302F3DA10084318D24823120005D
:10058800AC002808860087012C0881002E08033E4D
:10059800A00000302F3DA10084318D24823120003D
:1005A800AC002908860087012C0881002E08043E2B
:1005B800A00000302F3DA10084318D24823120001D
:1005C800AC002A08860087012C088100080020005A
:1005D800AD002B0883317F23823120002108AF0032
:1005E8002008AE002F08A1002E08A0002D08AC009E
:1005F8002C08A2008331DE23823120002E08013E20
:10060800A00000302F3DA1002708AC002C08A20054
:100618008331DE23823120002E08023EA000003004
:100628002F3DA1002808AC002C08A2008331DE234E
:10063800823120002E08033EA00000302F3DA1008B
:100648002908AC002C08A2008331DE238231200067
:100658002E08043EA00000302F3DA1002A08AC005F
:100668002C08A2008331DE238231080020009A0181
:100678009901960197019801073095000F30910074
:10068800FF309200FF309300FF309400FF303E00AF
:10069800D900C730CE00EF30C3000730E4000F3078
:1006A800B800DA01E501C401B901CF01E601BA01D8
:1006B800C501D001DB01FF30BB00FF30C600FF30B1
:1006C800D100FF30DC000730E700FF30BC00FF300E
:1006D800C700FF30D200FF30DD000730E8001330DC
:1006E8003D00C50014303E00A3001530A4001430AE
:1006F8003D00C60008002000A4009B2B0030A50088
:100708007030A600B12B0530A5007030A600B12BC3
:100718000A30A5007030A600B12B0F30A50070304C
:10072800A600B12BFF30A500F030A600B12B24089D
:10073800A200A3012308003A0319A32B962B220831
:10074800643A0319822B013A0319872B033A0319D8
:100758008C2B013A0319912B962B2608A10025080A
:10076800A000080020008C1BBA2BBB2BBD2B9617B2
:10077800BE2B9613003084316A2483317108F4004B
:100788007008F30002307402FE3003197302031874
:10079800CE2BCF2BD82B00307402FF3003197302F5
:1007A8000318D72BD82BDB2B20001616DD2B2000A7
:1007B8001612080000308B1B01302000A30021080E
:1007C80030009B002000200830009A0020002208FA
:1007D80030009C001E171E158B1355309F00AA3041
:1007E8009F009E149E18F92BFA2BF62B1E11200041
:1007F800230C031C8B1303188B17080000340034D8
:100808000034003400340034003400340034003440
:100818000034003400340034003400340034003430
:100828000034003400340034003400340034003420
:1008380000340034003400340034003424008F01C4
:1008480090010430910086308D00E8308C002E0035
:10085800101024000D08F8000C08F7002E001A14D8
:10086800F5302000A0000430A1008431EF24843149
:10087800013024008E00080022008E018F019001B3
:100888009101920193018D0121009E019B019C0120
:1008980094019501960197019A0199019801843074
:1008A80093009D0108008431E12484318431CE24F1
:1008B800843183313A2384318431D824843184319A
:1008C800402484318431222484310800F2007208E3
:1008D80021009E009317131313140000210013180E
:1008E800762C772C722C0D08F1000C08F00008000B
:1008F80024000E1D802C812C882C0E1071088D0070
:1009080070088C000E148C2C71088D0070088C00F7
:1009180008002000210830009B002000200830003B
:100928009A001E171E140000000030009E171C08B5
:100938000800803023008F000830900091010330B8
:100948008D00901620009315131608002E00101025
:100958007808F1007708F00084317C2484318431F0
:10096800B72484310800750876040319BC2CBD2C03
:10097800C22C76088A0075080A0084310800200015
:100988000D1AC72CC82CCD2C0C1FCB2CCC2CCD2C45
:1009980016130800803023008F0008309000910162
:1009A80003308D0090120800623031008D008F01F5
:1009B800910102309300920108002F0096019701DF
:1009C800980199019A019B01080064008001013196
:1009D800890BEA2C003420002108F6002008F500D5
:0409E80008000800FB
:020000040001F9
:0A000E00EC3FFF3F9F3FFF3FFF3F25
:00000001FF
