:04000000803118280B
:100008007E1480310B1F09280A2816282E001A1C76
:100018000E280F281628101C122813281628843199
:100028001A2480317E10090080311A28503084004B
:10003800003085001D308431592480317E10200025
:100048008031DF282000AF009930A0007030A10077
:100058008331FD2380312000AE002F088600870100
:100068002E088100A130A0007030A1008331FD234B
:1000780080312000AE002208860087012E0881000A
:10008800A330A0007030A1008331FD23803120000F
:10009800AE002308860087012E088100AB30A0003F
:1000A8007030A1008331FD2380312000AE00240888
:1000B800860087012E088100AD30A0007030A100B5
:1000C8008331FD2380312000AE002508860087019A
:1000D8002E088100B530A0007030A1008331FD23C7
:1000E80080312000AE002608860087012E08810096
:1000F800B730A0007030A1008331FD23803120008B
:10010800AE002708860087012E088100BF30A000B6
:100118007030A1008331FD2380312000AE00280813
:10012800860087012E088100C130A0007030A10030
:100138008331FD2380312000AE0029088600870125
:100148002E088100C930A0007030A1008331FD2342
:1001580080312000AE002A08860087012E08810021
:10016800CB30A0007030A1008331FD238031200006
:10017800AE002B08860087012E088100D330A0002E
:100188007030A1008331FD2380312000AE002C089F
:10019800860087012E088100D530A0007030A100AC
:1001A8008331FD2380312000AE002D0886008701B1
:1001B8002E0881000800FF302000BC000030BD0080
:1001C8008331C72380318B170B1726302000A000FE
:1001D8000330A10084315F24803120001617843158
:1001E8000D24803181317321803150302000B000DE
:1001F8003008A7004530B1003108A8004030B200EF
:100208003208A9003530B3003308AA006530B400BD
:100218003408AB00553082315B228031843133247D
:1002280080313F302000B0003008A7004030B100D6
:100238003108A8004130B2003208A9004230B300AA
:100248003308AA006530B4003408AB003E30823170
:100258000122803144302000B0003008A20045302F
:10026800B1003108A3004630B2003208A40047307C
:10027800B3003308A5004830B4003408A60049305C
:10028800B5003508A7004A30B6003608A8004B303C
:10029800B7003708A9004C30B8003808AA004D301C
:1002A800B9003908AB004E30BA003A08AC004F30FC
:1002B800BB003B08AD00433080312620803103303D
:1002C8002000B1008A30B0005530890B6929B00B85
:1002D8006929B10B6929003212298031182899300F
:1002E8002000A0007030A100AA30A4002408A200B9
:1002F80083314E238131A1302000A0007030A1004D
:100308000A30A4002408A20083314E238131A3308F
:100318002000A0007030A100A20183314E2381315A
:10032800AB302000A0007030A100A20183314E2321
:100338008131AD302000A0007030A100A2018331CE
:100348004E238131B5302000A0007030A100053067
:10035800A4002408A20083314E238131B730200045
:10036800A0007030A1000330A4002408A20083314B
:100378004E238131BF302000A0007030A100193019
:10038800A4002408A20083314E238131C13020000B
:10039800A0007030A1000230A4002408A20083311C
:1003A8004E238131C9302000A0007030A100A20185
:1003B80083314E238131CB302000A0007030A10062
:1003C8000C30A4002408A20083314E238131D3309D
:1003D8002000A0007030A100A20183314E2381319A
:1003E800D5302000A0007030A100E330A40024081C
:1003F800A20083314E23813108002000AD002B0874
:100408008231EF22823120002108AF002008AE009F
:100418002F08A1002E08A0008331FD23823120007F
:10042800AC002D08860087012C0881002E08083EA4
:10043800A00000302F3DA1008331FD238231200030
:10044800AC002708860087012C0881002E080A3E88
:10045800A00000302F3DA1008331FD238231200010
:10046800AC002808860087012C0881002E08123E5F
:10047800A00000302F3DA1008331FD2382312000F0
:10048800AC002908860087012C0881002E08143E3C
:10049800A00000302F3DA1008331FD2382312000D0
:1004A800AC002A08860087012C088100080020007B
:1004B800AD002B088231EF22823120002108AF00E5
:1004C8002008AE002F08A1002E08A0002D08AC00BF
:1004D8002C08A20083314E23823120002E08083ECA
:1004E800A00000302F3DA1002708AC002C08A20076
:1004F80083314E23823120002E080A3EA0000030AE
:100508002F3DA1002808AC002C08A20083314E23FF
:10051800823120002E08123EA00000302F3DA1009D
:100528002908AC002C08A20083314E238231200018
:100538002E08143EA00000302F3DA1002A08AC0070
:100548002C08A20083314E238231080020009A0132
:100558009901960197019801073095000F30910095
:10056800FF309200FF309300FF309400FF303E00D0
:10057800D900C730CE00EF30C3000730E4000F3099
:10058800B800DA01E501C401B901CF01E601BA01F9
:10059800C501D001DB01FF30BB00FF30C600FF30D2
:1005A800D100FF30DC000730E700FF30BC00FF302F
:1005B800C700FF30D200FF30DD000730E8001330FD
:1005C8003D00C50014303E00A3001530A4001430CF
:1005D8003D00C60008002000A4000B2B0030A50039
:1005E8007030A600212B2830A5007030A600212BE2
:1005F8005030A5007030A600212B7830A50070304F
:10060800A600212BFF30A500F030A600212B2408DE
:10061800A200A3012308003A0319132B062B220872
:10062800643A0319F22A013A0319F72A033A03191B
:10063800FC2A013A0319012B062B2608A1002508DC
:10064800A000080020008C1B2A2B2B2B2D2B961783
:100658002E2B961300308331DA2383317108F4008E
:100668007008F30002307402FE3003197302031895
:100678003E2B3F2B482B00307402FF3003197302C6
:100688000318472B482B4B2B200016164D2B200008
:100698001612080000308B1B01302000A30021082F
:1006A80030009B002000200830009A00200022081B
:1006B80030009C001E171E158B1355309F00AA3062
:1006C8009F009E149E18692B6A2B662B1E11200012
:1006D800230C031C8B1303188B17080000340034F9
:1006E8000034003400340034003400340034003462
:1006F8000034003400340034003400340034003452
:100708000034003400340034003400340034003441
:1007180000340034003400340034003424008F01E5
:1007280090010430910086308D00E8308C002E0056
:10073800101024000D08F8000C08F7002E001A14F9
:1007480065302000A0000430A10084315F2483318B
:10075800013024008E00080022008E018F019001D4
:100768009101920193018D0121009E019B019C0141
:1007780094019501960197019A0199019801843095
:1007880093009D01080084315124833184313E2433
:1007980083318231AA2283318431482483318331E1
:1007A800B02383318331922383310800F200720829
:1007B80021009E009317131313140000210013182F
:1007C800E62BE72BE22B0D08F1000C08F0000800DF
:1007D80024000E1DF02BF12BF82B0E1071088D0044
:1007E80070088C000E14FC2B71088D0070088C00AA
:1007F80008002000210830009B002000200830005D
:100808009A001E171E140000000030009E171C08D6
:100818000800803023008F000830900091010330D9
:100828008D00901620009315131608002E00101046
:100838007808F1007708F0008331EC2384318431A3
:100848002724843108007508760403192C2C2D2CD4
:10085800322C76088A0075080A00843108002000C6
:100868000D1A372C382C3D2C0C1F3B2C3C2C3D2CC6
:1008780016130800803023008F0008309000910183
:1008880003308D0090120800623031008D008F0116
:10089800910102309300920108002F009601970100
:1008A800980199019A019B010800640080010131B7
:1008B800890B5A2C003420002108F6002008F50086
:0408C800080008001C
:020000040001F9
:0A000E00EC3FFF3F9F3FFF3FFF3F25
:00000001FF
