:04000000803118280B
:100008007E1480310B1F09280A2816282E001A1C76
:100018000E280F281628101C122813281628893194
:10002800BD2180317E10090080311A28F501F601C2
:10003800F701F801C630840000308500213089318D
:100048005D218031203084000130850020308931E5
:100058005D2180317E1020008D31E02D2000ED00E3
:10006800590886008701403FDB00413FDC005B0800
:1000780084005C0885001200253A031D44284528A1
:10008800AC295908860087010130810741310318DE
:10009800810A2100E501E601F701F801FF30F500CA
:1000A800FF30F6002000E901EA0195287714590885
:1000B800860087010130810741310318810A95289C
:1000C800F7145B2877155B28F7155B2877165B28EC
:1000D8000130E9000030EA009528590886008701B8
:1000E800403FDB00413FDC005B0884005C08850082
:1000F8000008DD00DE015E08003A031984286C2838
:100108005D08203A03196828033A03196A28083A4F
:1001180003196628063A03195A281D3A0319642850
:100128006C2869086A0403199A289B287128771C87
:100138009E289F28A328FD30F705FF30F8055908A9
:1001480086008701403FDB00413FDC005B088400FC
:100158005C08850012002A3A031DB328B428D42865
:100168005908860087010130810741310318810A47
:100178005A0886008701010884008501023081073A
:10018800003F2100E500013FE600E61FCC28CD280E
:1001980019297714E509E609E50A0319E60A192970
:1001A800590886008701403FA600413FA7008E31CD
:1001B80064268031200027082100E6002000260858
:1001C8002100E500EF2859088600870101308107E2
:1001D80041310318810A2000590886008701403FF1
:1001E800DB00413FDC005B0884005C0885000008F8
:1001F800D03EDD00FF3003180030DE0000305E0224
:100208000A3003195D02031C0A290C2901300D2943
:100218000030DF00E0015F08EB006008EC006B08CD
:100228006C04031D18291929E7282000590886009D
:100238008701403FDB00413FDC005B0884005C082D
:1002480085001200643A03192A292B293C295908E8
:1002580086008701403FDB00413FDC005B088400EB
:100268005C0885001200693A031D3B293C2977295F
:100278005908860087010130810741310318810A36
:100288005A08860087010108840085010230810729
:10029800003FDB00013FDC005B08E1005C08E20096
:1002A800890D893B8909E300E400E500E600E700E1
:1002B800E8006108BB006208BC006308BD00640870
:1002C800BE006508BF006608C0006708C10068086E
:1002D800C2006D0883315B23803120003C08DA00BE
:1002E8003B08D900CF29590886008701403FDB0029
:1002F800413FDC005B0884005C0885001200253A59
:10030800031D87298829A1295908860087010130FA
:10031800810741310318810A2530A0000030A1006F
:100328006D08DB005B08A2008C31092480310130A4
:100338002000D9000030DA00CF295908860087014B
:100348000130810741310318810AD901DA01CF2927
:10035800590886008701403FDB00413FDC005B080D
:1003680084005C0885000008DD00DE015D08A0004F
:100378005E08A1006D08DF005F08A2008C31092427
:1003880080312000590886008701013081074131FA
:100398000318810A9B2908002000A60023000F0CDF
:1003A800890C01392000A200230011081F39200000
:1003B8002204031DE029E129D22923001114111870
:1003C800E629E729E32923000F0C890C01392000CD
:1003D800A200230011081F3920002204031DF5295B
:1003E800F629E7294E308D310325813123000F0C82
:1003F800890C01392000A200230011081F392000B0
:100408002204031D082A092AFA292608FA388D31F8
:100418000325813123000F0C890C01392000A2002B
:10042800230011081F3920002204031D1C2A1D2A3D
:100438000E2A2608FE388D310325813123000F0C42
:10044800890C01392000A200230011081F3920005F
:100458002204031D302A312A222A00002300911485
:100468009118372A382A342A23000F0C890C0139AD
:100478002000A200230011081F3920002204031DB8
:10048800462A472A382A4F308D31032581312300E7
:100498000F0C890C01392000A200230011081F3914
:1004A80020002204031D592A5A2A4B2A8A319F22E6
:1004B80081312000A2002208A40023000F0C890C1F
:1004C80001392000A200230011081F39200022044E
:1004D800031D6F2A702A612A230091161116111A1A
:1004E800762A772A732A911491187B2A7C2A782AEB
:1004F80023000F0C890C01392000A20023001108E9
:100508001F3920002204031D8A2A8B2A7C2A4E3098
:100518008D310325813123000F0C890C013920000E
:10052800A200230011081F3920002204031D9D2A60
:100538009E2A8F2A2608FA388D3103258131230017
:100548000F0C890C01392000A200230011081F3963
:1005580020002204031DB12AB22AA32A2608FE3845
:100568008D310325813123000F0C890C01392000BE
:10057800A200230011081F3920002204031DC52AE8
:10058800C62AB72A0000230091149118CC2ACD2A34
:10059800C92A23000F0C890C01392000A20023006E
:1005A80011081F3920002204031DDB2ADC2ACD2A6A
:1005B8004F308D310325813123000F0C890C01390F
:1005C8002000A200230011081F3920002204031D67
:1005D800EE2AEF2AE02A8A319F2281312000A200E8
:1005E8002208A50023000F0C890C01392000A20065
:1005F800230011081F3920002204031D042B052B9A
:10060800F62A230091161116111A0B2B0C2B082B06
:1006180091149118102B112B0D2B23000F0C890C02
:1006280001392000A200230011081F3920002204EC
:10063800031D1F2B202B112B4E308D3103258131AB
:1006480023000F0C890C01392000A2002300110897
:100658001F3920002204031D322B332B242B26089C
:10066800FA388D310325813123000F0C890C0139AB
:100678002000A200230011081F3920002204031DB6
:10068800462B472B382B2300111511194C2B4D2BBA
:10069800492B20002508A2000430A236890B512BD3
:1006A8000F302205A3002408F03923040800200095
:1006B800C6003B08CF003C08D0003D08D1003E08EA
:1006C800D2003F08D3004008D4004108D5004208B2
:1006D800D6004F30860000308700473FC300C31B59
:1006E800762B782B0130792B00302000C400C5010F
:1006F8004408CD004508CE004D084E040319852B4B
:10070800862BA42BCF09D009D109D209D309D40942
:10071800D509D609CF0A031DA42BD00A031DA42B83
:10072800D10A031DA42BD20A031DA42BD30A031D2F
:10073800A42BD40A031DA42BD50A031DA42BD60A67
:10074800F61BA72BA82BAC2BFD30F705FF30F805BF
:100758007608803A2000C30080304302031DB62B80
:10076800013075020318B92BBA2BC02B01302000B9
:10077800C9000030CA00C52B76082000CA007508D9
:10078800C900210066082000CC002100650820006F
:10079800CB004D084E04031DD22BD32BD72B771D2E
:1007A800D62BD72BDB2BFF30CB07FF30CC3D1F30B0
:1007B800D7000030D8002200BF014B2CFF302000AA
:1007C800D707FF30D83D0A30A000A101A201A3013C
:1007D800A401A501A601A7014F08A8005008A90077
:1007E8005108AA005208AB005308AC005408AD00E9
:1007F8005508AE005608AF008F311327833120000B
:100808002108B4002008B3008A31832283312000F4
:100818003308303EC3005708203E86000130870069
:1008280043088100FF30C907FF30CA3DFF30CB07BE
:10083800FF30CC3D0A30A000A101A201A301A40110
:10084800A501A601A7014F08A8005008A900510852
:10085800AA005208AB005308AC005408AD00550874
:10086800AE005608AF0086310F26833120002008DD
:10087800CF002108D0002208D1002308D200240884
:10088800D3002508D4002608D5002708D600200064
:100898005808803AC30080304302031D552C0130AC
:1008A8005702031C582C592C852C20004F08500443
:1008B800510452045304540455045604031D652C72
:1008C800662CE22B4A08803AC30080304302031D9D
:1008D8006F2C013049020318722C732CE22B200074
:1008E8004C08803AC30080304302031D7D2C013040
:1008F8004B02031C802C812C852CF718842C852C0A
:10090800E22B20004D084E04031D8B2C8C2C902CC0
:10091800771D8F2C902CAC2CFF30D707FF30D83D9B
:100928004D084E04031D992C9A2C9F2C2B30C70080
:100938000030C800A32C2D30C7000030C80047087D
:10094800C3005708203E8600013087004308810015
:100958005708203EC3004308B0004C08B2004B08BB
:10096800B10046088C31AD24833120003108BC0029
:100978003008BB00080023000F0C890C0139200047
:10098800A200230011081F3920002204031DCD2CCA
:10099800CE2CBF2C230011141118D32CD42CD02CFE
:1009A80023000F0C890C01392000A2002300110834
:1009B8001F3920002204031DE22CE32CD42C9A308A
:1009C8008D310325843123000F0C890C0139200057
:1009D800A200230011081F3920002204031DF52C52
:1009E800F62CE72C01308D310325843123000F0CC0
:1009F800890C01392000A200230011081F392000AA
:100A08002204031D082D092DFA2C23009114911896
:100A18000E2D0F2D0B2D23000F0C890C01392000F2
:100A2800A200230011081F3920002204031D1D2DD8
:100A38001E2D0F2D9B308D310325843123000F0C83
:100A4800890C01392000A200230011081F39200059
:100A58002204031D302D312D222D8A319F2284310D
:100A68002000A2002208A30023000F0C890C0139E2
:100A78002000A200230011081F3920002204031DB2
:100A8800462D472D382D230091161116111A4D2D7C
:100A98004E2D4A2D23000F0C890C01392000A2008D
:100AA800230011081F3920002204031D5C2D5D2D31
:100AB8004E2D230011151119622D632D5F2D200075
:100AC800231F672D682DBF2C23000F0C890C0139BB
:100AD8002000A200230011081F3920002204031D52
:100AE800762D772D682D2300111411187C2D7D2D5E
:100AF800792D23000F0C890C01392000A200230056
:100B080011081F3920002204031D8B2D8C2D7D2DEB
:100B18009A308D310325843123000F0C890C01395B
:100B28002000A200230011081F3920002204031D01
:100B38009E2D9F2D902D00308D310325843123006B
:100B48000F0C890C01392000A200230011081F395D
:100B580020002204031DB12DB22DA32D23009114D2
:100B68009118B72DB82DB42D23000F0C890C01391D
:100B78002000A200230011081F3920002204031DB1
:100B8800C62DC72DB82D9B308D3103258431230008
:100B98000F0C890C01392000A200230011081F390D
:100BA80020002204031DD92DDA2DCB2D8A319F2256
:100BB80084312000A2002208A30023000F0C890C16
:100BC80001392000A200230011081F392000220447
:100BD800031DEF2DF02DE12D230091161116111A8A
:100BE800F62DF72DF32D23000F0C890C0139200069
:100BF800A200230011081F3920002204031D052E1E
:100C0800062EF72D2300111511190B2E0C2E082E68
:100C18002000230808002000B201203086000030A0
:100C28008700473FB000B01F1A2E1B2E3D2E200014
:100C3800A009A109A209A309A409A509A609A70948
:100C4800A00A031D3A2EA10A031D3A2EA20A031D6B
:100C58003A2EA30A031D3A2EA40A031D3A2EA50A0A
:100C6800031D3A2EA60A031D3A2EA70A2000B20138
:100C7800B20A2830860000308700473F2000B000C5
:100C8800B01F472E482E6C2E2000A809A909AA09D2
:100C9800AB09AC09AD09AE09AF09A80A031D672E57
:100CA800A90A031D672EAA0A031D672EAB0A031D96
:100CB800672EAC0A031D672EAD0A031D672EAE0A08
:100CC800031D672EAF0A01302000B0003008B206BD
:100CD800333086000030870008302000B000003034
:100CE8001E00B00B742E20082104220423042404BF
:100CF8002504260427040319822E832EDF2EB10132
:100D0800B10A922EA035A10DA20DA30DA40DA50D1B
:100D1800A60DA70D0130B0003008B107A71F952E0A
:100D2800962E862EB335B40DB50DB60DB70DB80D8C
:100D3800B90DBA0D27082F02031DBC2E26082E0256
:100D4800031DBC2E25082D02031DBC2E24082C02D1
:100D5800031DBC2E23082B02031DBC2E22082A02C9
:100D6800031DBC2E21082902031DBC2E20082802C1
:100D7800031CBF2EC02ED12E2008A8022108A93B93
:100D88002208AA3B2308AB3B2408AC3B2508AD3B13
:100D98002608AE3B2708AF3B3314A736A60CA50C94
:100DA800A40CA30CA20CA10CA00C0130B102031DD1
:100DB800DE2EDF2E962E32080319E32EE42E022FA4
:100DC800B309B409B509B609B709B809B909BA091F
:100DD800B30A031D022FB40A031D022FB50A031D0F
:100DE800022FB60A031D022FB70A031D022FB80AE5
:100DF800031D022FB90A031D022FBA0A2000330867
:100E0800A0003408A1003508A2003608A30037085E
:100E1800A4003808A5003908A6003A08A700080069
:100E28002000A5002508F039A3002308A6002508FE
:100E3800A3000330A335FF3E031D1E2F2335F039D1
:100E4800A4002408A70023000F0C890C01392000F6
:100E5800A300230011081F3920002304031D352F88
:100E6800362F272F2300111411183B2F3C2F382F12
:100E780023000F0C890C01392000A300230011085E
:100E88001F3920002304031D4A2F4B2F3C2F4E30BF
:100E98008D310325873123000F0C890C013920007F
:100EA800A300230011081F3920002304031D5D2F10
:100EB8005E2F4F2F2608220408388D3103258731ED
:100EC80023000F0C890C01392000A300230011080E
:100ED8001F3920002304031D722F732F642F260847
:100EE80022040C388D310325873123000F0C890C1F
:100EF80001392000A300230011081F392000230412
:100F0800031D872F882F792F000020002608220430
:100F180008388D310325873123000F0C890C0139DE
:100F28002000A300230011081F3920002304031DFB
:100F38009E2F9F2F902F2708220408388D310325D4
:100F4800873123000F0C890C01392000A3002300EE
:100F580011081F3920002304031DB32FB42FA52F18
:100F6800270822040C388D310325873123000F0C04
:100F7800890C01392000A300230011081F39200023
:100F88002304031DC82FC92FBA2F000020002708EB
:100F9800220408388D310325873123000F0C890C72
:100FA80001392000A300230011081F392000230461
:100FB800031DDF2FE02FD12F230011151119E52F65
:100FC800E62FE22F1030890BE72F00320800893115
:100FD8006B21873189318E2187318B31C423873149
:100FE80089317C2187318A31012287318A31DE2299
:080FF800873108000800080021
:1012BA00640080010131890B5E2900342000A800F6
:1012CA00A201280887311427893108002F009601C6
:1012DA009701980199019A019B0108002000A80032
:1012EA00A201A20A2808873114278931080062302E
:1012FA0031008D008F0191010230930092010800A4
:10130A00200021082100E800200020082100E70031
:10131A000800803023008F000830900091010330CC
:10132A008D009012080020000D1A9C299D29A229DF
:10133A000C1FA029A129A229161308002100670859
:10134A0068040319A929AA29AF2968088A00670825
:10135A000A0089310800803023008F00083090008D
:10136A00910103308D009016200093151316080082
:10137A002E00101021006A08F1006908F000893176
:10138A00CB2189318931A3218931080024000E1D1E
:10139A00CF29D029D7290E1071088D0070088C002A
:1013AA000E14DB2971088D0070088C000800F20009
:1013BA00720821009E0093171313131400002100D2
:1013CA001318E829E929E4290D08F1000C08F000AE
:1013DA00080000308131D021893180390319F6297A
:1013EA00F729FD2901302000A7000030A800002AB3
:1013FA002000A701A801080022008E018F01900198
:10140A009101920193018D0121009E019B019C0192
:10141A0094019501960197019A01990198018430E6
:10142A0093009D01080020002008D03EA200FF3052
:10143A00213DA300003023020A3003192202031CB3
:10144A00272A292A01302A2A0030A400A5012408C3
:10145A00A0002508A1000800362A2E088931732128
:10146A008A3120002A08AC002908AB00A90A03190E
:10147A00AA0A2B0884002C0885000008AD002D0854
:10148A00AE002E08031D4A2A4B2A322A08002000E1
:10149A00A4002408A2002208A300572A0130A200AF
:1014AA002208A40724088600013087000108031DCA
:1014BA005F2A602A532A23082402A000A101A01B44
:1014CA00A10308002000AB0002302B02031C6E2A85
:1014DA006F2A742AC030AA002A08AC00782A803001
:1014EA00AA002A08AC0029080F392C04AA002A08E5
:1014FA00AC002C08893163218A31080020003408A5
:10150A00803AB50080303502031D8D2A013033023E
:10151A000318902A912A9E2A20003309B50034091B
:10152A00B600B50A0319B60A3508B3003608B4007E
:10153A009E2A08000F30230010052000A000083062
:10154A0020060319A92AAA2AB52A0F302300100552
:10155A002000A0000B302006031DB42AB52AB72AA2
:10156A002300911523000F1CBB2ABC2AB72A0C089A
:10157A0008002000A401A501201CC42AC52AC92AE2
:10158A002208A4072308A53D0130A235A30D890B23
:10159A00CA2A0130A136A00C890BCF2A20082104BF
:1015AA00031DD82AD92AC12A2508A1002408A00087
:1015BA00080024008F0190010430910086308D00CC
:1015CA00E8308C002E00101024000D082100EA00DB
:1015DA0024000C082100E9002E001A14FF30200014
:1015EA00A0000730A100893185218A310130240009
:1015FA008E0008002000A401A40A2030200621043D
:10160A000319082B092B192B2008F73EA200FF30DB
:10161A00213DA30000302302053003192202031CD6
:10162A00172B182B192BA4012408A200A3012208A6
:10163A00A0002308A10008002100AB00A830AA00DE
:10164A002A08AC002B08AA002A08AD00AE01AF0197
:10165A00B001B1012708A1002608A000AC30AA00F9
:10166A002A08A200AD308B3195238B3121002E0838
:10167A002B07AA002A08860087018101080020009A
:10168A008C1B482B492B4B2B96174C2B961300304F
:10169A008931DC218B317108F4007008F3000230C3
:1016AA007402FE300319730203185C2B5D2B662B40
:1016BA0000307402FF30031973020318652B662B7E
:1016CA00692B200016166B2B20001612080020002A
:1016DA00AF00AD01AE01842B2C08A900AA0129088C
:1016EA00A0002A08A1002808AB002B08A2008C3110
:1016FA0009248B3101302000AD070030AE3D2D08A2
:10170A002F07A90029088600013087000108AA00CE
:10171A002A08AC002C08031D932B942B712B08006C
:10172A002100A3002108A5002008A400E301E40188
:10173A00B62BA4302000EE006E08D9002100220842
:10174A002000EF006F08DA002100230880313220E0
:10175A008B31200059082100E30720005A08210094
:10176A00E43D24088400250885001200031DBE2BD1
:10177A00BF2B9E2B6408A1006308A000080020006C
:10178A009A019901960197019801073095000F3047
:10179A009100FF309200FF309300FF309400FF3039
:1017AA003E00D900C730CE00EF30C3000730E40056
:1017BA000F30B800DA01E501C401B901CF01E60131
:1017CA00BA01C501D001DB01FF30BB00FF30C60002
:1017DA00FF30D100FF30DC000730E700FF30BC00EB
:1017EA00FF30C700FF30D200FF30DD000730E800CD
:1017FA0013303D00C50014303E00A3001530A4008C
:10180A0014303D00C60008002000220803190E2CDF
:10181A000F2C142C2208031D132C142C192C20080D
:10182A008731FE278C31592C2208033E8600870116
:10183A00160001040319222C232C402C2208033EF3
:10184A0086008701403FA300413FA400220A860088
:10185A008701403FA500413FA6002608803AA7001D
:10186A002408803A2702031D3C2C2308250203186A
:10187A003F2C402C592C20002008A3002208860067
:10188A008701220A8400850100080107A4002408B0
:10189A008600870123088100220A86008701013019
:1018AA00810741310318810A08002000A3002300A0
:1018BA000F0C890C01392000A200230011081F39DE
:1018CA0020002204031D6A2C6B2C5C2C23001114AB
:1018DA001118702C712C6D2C23000F0C890C0139F6
:1018EA002000A200230011081F3920002204031D32
:1018FA007F2C802C712C4E308D3103258C312300A6
:10190A000F0C890C01392000A200230011081F398D
:10191A0020002204031D922C932C842C23088D3141
:10192A0003258C3123000F0C890C01392000A200F9
:10193A00230011081F3920002204031DA52CA62C00
:10194A00972C230011151119AB2CAC2CA82C0800CC
:10195A002000B800771CB22CB32CBB2C3808B3007B
:10196A003308A80030088B316C238C312000B21B5D
:10197A00BF2CC02CC52C3208B7003108B600C72CC2
:10198A00B601B701B401B501DB2C20302000A0005C
:10199A000030A1003808B3003308A2008C310924B2
:1019AA008C3101302000B4070030B53D3508803A4B
:1019BA00B3003708803A3302031DE52C3608340297
:1019CA00031CE82CE92CCA2C7718EC2CED2CF62CED
:1019DA0020003808B3003308A80030088B316C2384
:1019EA008C31200030088A314C228C312000360894
:1019FA002007B0003708213DB10008002000A100EF
:101A0A00210823008C00901F0B2D0C2D0D2D5C2D11
:101A1A000F3010052000A000083020060319162DEB
:101A2A00172D302D0F30230010052000A0000B3099
:101A3A0020060319212D222D302D230010162E00E9
:101A4A000F1C282D292D242D23000F192D2D2E2D65
:101A5A005C2D0F085C2D0F30230010052000A0001C
:101A6A000830200603193A2D3B2D462D0F3023004E
:101A7A0010052000A0000B302006031D452D462D21
:101A8A005C2D23000F184A2D4B2D462D23000F0CD9
:101A9A00890C01392000A000230011081F392000F9
:101AAA002004031D592D5A2D4B2D2300110808001F
:101ABA0041302000A800EE30890B612DA80B612D62
:101ACA00000030308C315A248D3134308C315A2414
:101ADA008D31A630890B6F2D003230308C315A246B
:101AEA008D3107302000A8007D30890B7A2DA80B94
:101AFA007A2D30308C315A248D3134308C315A243D
:101B0A008D31A630890B872D003230308C315A2422
:101B1A008D312130890B8F2D000030308C315A24C1
:101B2A008D3134308C315A248D31A630890B9B2D5E
:101B3A00003230308C315A248D312130890BA32D5B
:101B4A00000020308C315A248D3124308C315A24B3
:101B5A008D31A630890BAF2D003220308C315A24BA
:101B6A008D3107302000A8007D30890BBA2DA80BD3
:101B7A00BA2D2000A2012830873114278D31200088
:101B8A00A2010630873114278D312000A2010F30BF
:101B9A00873114278D312000A201013087311427A3
:101BAA008D3103302000A8009730890BDA2DA80B5D
:101BBA00DA2D003208008731EB278D318B170B178E
:101BCA0044302000A0000B30A100893185218D31DD
:101BDA00200016178931B0218D318D315D258D3167
:101BEA00893198218D318431BF248D312100B20091
:101BFA003208C5008030893163218D318931EE2167
:101C0A008D31200027082804031D0C2E0D2E032ECB
:101C1A002F30A9009030AA008A3131228D31083044
:101C2A002100B20032082000A90000308A31672260
:101C3A008D318931EE218D31200027082804031DBA
:101C4A00272E282E1E2E2030A9009030AA008A3175
:101C5A0031228D31C030893163218D312830210004
:101C6A00A6009030A7004508B200B3013208A800C8
:101C7A003308A900B4308B3121238D318931EE210B
:101C8A008D31200027082804031D4C2E4D2E432E8B
:101C9A00B430A9000030AA008A3131228D310330D4
:101CAA002100B3008A30B2005530890B5A2EB20B8C
:101CBA005A2EB30B5A2E0032F52D803118282000E7
:101CCA00B301B401AC01AD016E2E0130A60700309C
:101CDA00A73DB201B20A260884002708850012002F
:101CEA00203A0319792E7A2E8F2E26088400270887
:101CFA0085000008F73EA800FF3003180030A9004D
:101D0A0000302902053003192802031C8D2E8E2E5D
:101D1A008F2EB2013208A800A9012808AE002908AE
:101D2A00AF002E082F04031D9B2E9C2E6A2EA62E72
:101D3A000130AC000030AD000130A6070030A73DED
:101D4A00DA2E26088400270885000008A800A901C1
:101D5A002908003A0319B22EDA2E28082B3A031959
:101D6A00A12E063A03199D2EDA2E2608840027088A
:101D7A0085000008A8003408A1003308A0000A3032
:101D8A00A2000030A3008A31BE228E312000210831
:101D9A00AA0028082002A900031CAA032908303E29
:101DAA00B30000302A3DB400A12E2608840027087B
:101DBA0085000008D03EA800FF3003180030A900B3
:101DCA00003029020A3003192802031CED2EEF2ED7
:101DDA000130F02E0030AA00AB012A08B0002B080F
:101DEA00B10030083104031DFB2EFC2EBA2E2C083C
:101DFA002D04031D012F022F0E2F3309A8003409C9
:101E0A00A900A80A0319A90A2808A6002908A700F0
:101E1A00122F3408A7003308A60008002000B201D8
:101E2A002830860000308700473FB000B01F1E2FC1
:101E3A001F2F412F2000A809A909AA09AB09AC093B
:101E4A00AD09AE09AF09A80A031D3E2FA90A031D51
:101E5A003E2FAA0A031D3E2FAB0A031D3E2FAC0AD2
:101E6A00031D3E2FAD0A031D3E2FAE0A031D3E2F52
:101E7A00AF0A2000B201B20A203086000030870083
:101E8A00473F2000B000B01F4B2F4C2F6B2F200074
:101E9A00A009A109A209A309A409A509A609A709D4
:101EAA00A00A031D6B2FA10A031D6B2FA20A031D93
:101EBA006B2FA30A031D6B2FA40A031D6B2FA50A00
:101ECA00031D6B2FA60A031D6B2FA70A20002008EB
:101EDA0021042204230424042504260427040319C4
:101EEA00772F782FCB2FB101B10A872FA035A10DFB
:101EFA00A20DA30DA40DA50DA60DA70D0130B000CE
:101F0A003008B107A71F8A2F8B2F7B2F27082F0294
:101F1A00031DA92F26082E02031DA92F25082D020D
:101F2A00031DA92F24082C02031DA92F23082B0205
:101F3A00031DA92F22082A02031DA92F21082902FD
:101F4A00031DA92F20082802031CAC2FAD2FBD2F7B
:101F5A002008A8022108A93B2208AA3B2308AB3B78
:101F6A002408AC3B2508AD3B2608AE3B2708AF3B0F
:101F7A00A736A60CA50CA40CA30CA20CA10CA00CB1
:101F8A000130B102031DCA2FCB2F8B2F3208031940
:101F9A00CF2FD02FEE2FA809A909AA09AB09AC099E
:101FAA00AD09AE09AF09A80A031DEE2FA90A031D40
:101FBA00EE2FAA0A031DEE2FAB0A031DEE2FAC0A61
:101FCA00031DEE2FAD0A031DEE2FAE0A031DEE2FE1
:101FDA00AF0A20002808A0002908A1002A08A200A8
:101FEA002B08A3002C08A4002D08A5002E08A60083
:101FFA002F08A700080000340034003400340034ED
:10200A000034003400340034003400340034003426
:10201A000034003400340034003400340034003416
:10202A000034003400340034003400340034003406
:10203A000034003400345334543452342D3452347E
:10204A005434533400342534303432346434203434
:0E205A0043340034543465346D347034003433
:020000040001F9
:0A000E00EC3FFF3F9F3FFF3FFF3F25
:00000001FF
