:04000000803118280B
:100008007E1480310B1F09280A2816282E001A1C76
:100018000E280F281628101C12281328162881319C
:10002800022180317E10090080311A287E102000BC
:1000380080319E2820009A01990196019701980124
:10004800073095000F309100FF309200FF30930089
:10005800FF309400FF303E00D900DF30CE00EF3093
:10006800C3000730E4000F30B800DA01E501C4012D
:10007800B901CF01E601BA01C501D001DB01FF30AA
:10008800BB00FF30C600FF30D100FF30DC00073076
:10009800E700FF30BC00FF30C700FF30D200FF3060
:1000A800DD000730E800080020008C1B5C285D2874
:1000B8005F2896176028961300308031CF20803152
:1000C8007108F4007008F30002307402FE3003195E
:1000D80073020318702871287A2800307402FF30E0
:1000E80003197302031879287A287D282000161628
:1000F8007F2820001612080024008F019001043088
:10010800910086308D00E8308C002E0010102400FD
:100118000D08F8000C08F7002E001A1439302000DA
:10012800A0000130A1008131332180310130240049
:100138008E0008008031F22080318B170B17583061
:100148002000A0000030A10081313321803120003F
:10015800161720000D1EB128B228AD2881312C2198
:100168008031AD288031182822008E018F0190013E
:100178009101920193018D0121009E019B019C0137
:1001880094019501960197019A019901980184308B
:1001980093009D010800F200720821009E00931749
:1001A80013131314000021001318DB28DC28D728A8
:1001B8000D08F1000C08F000080024000E1DE528C9
:1001C800E628ED280E1071088D0070088C000E14BA
:1001D800F12871088D0070088C00080081312421F5
:1001E800803180311E20803181311B218031803166
:1001F800B820803180318020803108002E00101016
:100208007808F1007708F0008031E12081318131F0
:100218000F2181310800750876040319142915295E
:100228001A2976088A0075080A00813108006230A8
:1002380031008D008F019101023093009201080076
:100248002F0096019701980199019A019B010800D6
:1002580020000C1F302931293229161308002000EC
:0C0268002108F6002008F500080008003E
:020000040001F9
:0A000E00EC3FFF3F9F3FFF3FFF3F25
:00000001FF
